:100000000C9434000C9446000C9446000C9446006A
:100010000C9446000C9446000C9446000C94460048
:100020000C9446000C9446000C9446000C94460038
:100030000C9446000C9446000C9446000C94460028
:100040000C9446000C9446000C9446000C94460018
:100050000C9446000C9446000C9446000C94460008
:100060000C9446000C94460011241FBECFEFD8E03C
:10007000DEBFCDBF21E0A0E0B1E001C01D92A03005
:10008000B207E1F70E94A7000C94F3000C94000063
:10009000ECE7F0E0808180648083EAE7F0E0808133
:1000A000876080838081806880830895ECE7F0E03A
:1000B0009081907F8F70892B8083EAE7F0E08081C8
:1000C0008064808380917A0086FDFCCF80917800E7
:1000D000909179000895CF93DF9300D0CDB7DEB72C
:1000E00040E050E011C01A82198207C00000298147
:1000F0003A812F5F3F4F3A83298329813A81223504
:100100003340A0F34F5F5F4F4817590760F30F90DC
:100110000F90DF91CF9108959093C5008093C40014
:1001200088E18093C10086E08093C2000895909199
:10013000C00095FFFCCF8093C60008958091C00059
:1001400088231CF48091C600089580E008950E94E1
:10015000480087E690E00E948C0084B1846084B9F6
:10016000789480E00E94560085E00E94560082E06C
:100170000E94560081E00E94560083E00E945600D3
:100180000E949E00E7EAF1E63197F1F700C0000017
:10019000813421F485B1846085B9E3CF823459F488
:1001A00085B18B7F85B988E893E10E946B0085B1AA
:1001B000846085B9D6CF833421F485B18B7F85B92E
:1001C000D0CF882371F285E40E94970082E50E94D7
:1001D000970082E50E9497008FE40E94970082E5D5
:0A01E0000E949700BECFF894FFCFF5
:00000001FF
