S0110000526F626F74526163652E7372656392
S11300000C9434000C9451000C9451000C94510045
S11300100C9451000C9451000C9451000C94510018
S11300200C9451000C9451000C9451000C94510008
S11300300C9451000C9451000C9451000C945100F8
S11300400C9451000C9451000C9451000C945100E8
S11300500C9451000C9451000C9451000C945100D8
S11300600C9451000C94510011241FBECFEFD8E022
S1130070DEBFCDBF11E0A0E0B1E0EAE8F4E002C0E9
S113008005900D92A431B107D9F721E0A4E1B1E0C4
S113009001C01D92A531B207E1F70E94AA010C9498
S11300A043020C940000ECE7F0E0808180648083DC
S11300B0EAE7F0E0808187608083808180688083C4
S11300C00895ECE7F0E09081907F8F70892B808316
S11300D0EAE7F0E080818064808380917A0086FD85
S11300E0FCCF80917800909179000895CF93DF93AD
S11300F000D0CDB7DEB740E050E011C01A821982BB
S113010007C0000029813A812F5F3F4F3A8329833A
S113011029813A8122353340A0F34F5F5F4F48175E
S1130120590760F30F900F90DF91CF91089590934A
S1130130C5008093C40088E18093C10086E0809369
S1130140C20008958091C00088231CF48091C600E9
S1130150089580E008958AB180668AB984B5836A77
S113016084BD85B5836085BD84B18C6084B90895F0
S1130170811102C018BC089588BD0895811102C080
S113018017BC089587BD0895813021F485B184603A
S113019085B9089585B18B7F85B90895813021F49F
S11301A085B1886085B9089585B1877F85B908953B
S11301B0CF93DF9383EC99E00197F1F700C000003F
S11301C0C2E1D1E088810E94B80088810E94BE000B
S11301D083EC99E00197F1F700C00000DF91CF9123
S11301E0089583EC99E00197F1F700C00000809135
S11301F00E010E94B800809112010E94BE0083EC9F
S113020099E00197F1F700C00000089583EC99E0AC
S11302100197F1F700C0000084EB0E94B8008EE162
S11302200E94BE0083EC99E00197F1F700C0000042
S1130230089583EC99E00197F1F700C000008091E4
S11302400C010E94B800809110010E94BE0083EC52
S113025099E00197F1F700C00000089583EC99E05C
S11302600197F1F700C00000809112010E94B800CC
S113027080910E010E94BE0083EC99E00197F1F792
S113028000C00000089583EC99E00197F1F700C0E5
S113029000008EE10E94B80084EB0E94BE0083EC53
S11302A099E00197F1F700C00000089583EC99E00C
S11302B00197F1F700C00000809110010E94B8007E
S11302C080910C010E94BE0083EC99E00197F1F744
S11302D000C00000089520910601309107018217A3
S11302E093071CF40E941901089520910A0130918A
S11302F00B01821793071CF40E94060108952091B4
S1130300040130910501821793071CF40E94F10047
S113031008952091020130910301281739071CF434
S11303200E9456010895209108013091090128176F
S113033039071CF40E944301089520910001309173
S11303400101281739071CF40E942E0108950E9408
S1130350D80008950E94530087E690E00E94970019
S11303600E94AB0081E00E94C40081E00E94CE00A4
S113037080E00E94B80080E00E94BE0078940E9451
S1130380A2009FEB980F933098F58093140130C02E
S113039080E00E9461004E976C0185E00E9461003C
S11303A0EC0182E00E9461007C0181E00E94610016
S11303B08C010E51110983E00E946100449796015B
S11303C02C0F3D1FE701C20FD31FC00FD11F8C0F8D
S11303D09D1F65E070E00E941B02CB010E946B012F
S11303E00E94A2009EEB980F923010F480931401A7
S11303F080911401813461F280E00E94B80080E0B1
S11304000E94BE0080911401823481F488E893E153
S11304100E94760081E48093140108C00E94A20027
S11304209FEB980F923010F4809314018091140183
S11304308334A1F3A4CF97FB072E16F4009407D0BE
S113044077FD09D00E942F0207FC05D03EF4909559
S113045081959F4F0895709561957F4F0895AA1BCC
S1130460BB1B51E107C0AA1FBB1FA617B70710F09B
S1130470A61BB70B881F991F5A95A9F780959095CD
S10D0480BC01CD010895F894FFCFEC
S113048AFE012B02B8018B010D02A901FF006400D1
S107049A050046000F
S9030000FC
