:100000000C9434000C9451000C9451000C94510049
:100010000C9451000C9451000C9451000C9451001C
:100020000C9451000C9451000C9451000C9451000C
:100030000C9451000C9451000C9451000C945100FC
:100040000C9451000C9451000C9451000C945100EC
:100050000C9451000C9451000C9451000C945100DC
:100060000C9451000C94510011241FBECFEFD8E026
:10007000DEBFCDBF11E0A0E0B1E0E0EEF3E002C0F2
:1000800005900D92A830B107D9F721E0A8E0B1E0C2
:1000900001C01D92A930B207E1F70E94BB000C9489
:1000A000EE010C940000ECE7F0E080818064808336
:1000B000EAE7F0E0808187608083808180688083C8
:1000C0000895ECE7F0E09081907F8F70892B80831A
:1000D000EAE7F0E080818064808380917A0086FD89
:1000E000FCCF809178009091790008959093C5009D
:1000F0008093C40088E18093C10086E08093C200B1
:1001000008959091C00095FFFCCF8093C60008959C
:100110008091C00088231CF48091C600089580E07F
:1001200008958AB180668AB984B5836A84BD85B52D
:10013000836085BD0895811102C018BC089588BDF3
:100140000895811102C017BC089587BD08958130BC
:1001500021F485B1846085B9089585B18B7F85B917
:100160000895813021F485B1886085B9089585B1FD
:10017000877F85B908950E94530087E690E00E942A
:1001800076000E94910084B1846084B985B1846056
:1001900085B984B18C6084B981E00E94A70081E0B8
:1001A0000E94B10080E00E949B0080E00E94A100BC
:1001B00078940E94880081118093080187E893E178
:1001C0000197F1F700C0000080910801813409F027
:1001D000B0C080E00E9461008F3A9140D0F185E08C
:1001E0000E9461008C599F4F8F3A914090F182E0BC
:1001F0000E946100865A9F4F8F3A914050F182E0F1
:100200000E946100865A9F4F8E3E924010F581E019
:100210000E9461008E3E9240E0F483E00E94610003
:1002200088968E3E9240A8F483EC99E00197F1F70E
:1002300000C00000C6E0D1E088810E949B00888158
:100240000E94A10083EC99E00197F1F700C0000043
:10025000BEC080E00E9461008E3A914090F585E03A
:100260000E9461008C599F4F8E3A9140A8F483EC14
:1002700099E00197F1F700C00000809100010E9411
:100280009B00809104010E94A10083EC99E00197FA
:10029000F1F700C000009BC083EC99E00197F1F7F3
:1002A00000C00000809102010E949B008091040127
:1002B0000E94A10083EC99E00197F1F700C00000D3
:1002C00086C083E00E94610088968F3E924008F4C9
:1002D0007EC081E00E9461008F3E9240A8F083ECD6
:1002E00099E00197F1F700C00000809104010E949D
:1002F0009B00809100010E94A10083EC99E001978E
:10030000F1F700C0000063C083EC99E00197F1F7BA
:1003100000C00000809104010E949B0080910201B6
:100320000E94A10083EC99E00197F1F700C0000062
:100330004EC0823499F480E00E949B0080E00E94CD
:10034000A1009FE322E48FE0915020408040E1F73C
:1003500000C0000081E48093080139C0833439F47F
:1003600080E00E949B0080E00E94A10030C08111CB
:100370001FC089E40E94810080E20E94810081E424
:100380000E9481008DE40E94810080E20E94810031
:1003900082E50E94810085E40E94810081E40E9440
:1003A000810084E40E94810089E50E9481000FC0E1
:1003B00085E40E94810082E50E94810082E50E941E
:1003C00081008FE40E94810082E50E94810087EA1B
:1003D00091E60197F1F700C00000EBCEF894FFCF53
:0803E000A00078005000C800E5
:00000001FF
