S0110000526F626F74526163652E7372656392
S11300000C9434000C9451000C9451000C94510045
S11300100C9451000C9451000C9451000C94510018
S11300200C9451000C9451000C9451000C94510008
S11300300C9451000C9451000C9451000C945100F8
S11300400C9451000C9451000C9451000C945100E8
S11300500C9451000C9451000C9451000C945100D8
S11300600C9451000C94510011241FBECFEFD8E022
S1130070DEBFCDBF11E0A0E0B1E0E0E2F5E002C0F8
S113008005900D92AC31B107D9F721E0ACE1B1E0B4
S113009001C01D92AD31B207E1F70E94DC010C945E
S11300A08E020C940000ECE7F0E080818064808391
S11300B0EAE7F0E0808187608083808180688083C4
S11300C00895ECE7F0E09081907F8F70892B808316
S11300D0EAE7F0E080818064808380917A0086FD85
S11300E0FCCF80917800909179000895CF93DF93AD
S11300F000D0CDB7DEB740E050E011C01A821982BB
S113010007C0000029813A812F5F3F4F3A8329833A
S113011029813A8122353340A0F34F5F5F4F48175E
S1130120590760F30F900F90DF91CF91089590934A
S1130130C5008093C40088E18093C10086E0809369
S1130140C20008958091C00088231CF48091C600E9
S1130150089580E008958AB180668AB984B5836A77
S113016084BD85B5836085BD84B18C6084B90895F0
S1130170811102C018BC089588BD0895811102C080
S113018017BC089587BD0895813021F485B184603A
S113019085B9089585B18B7F85B90895813021F49F
S11301A085B1886085B9089585B1877F85B908953B
S11301B0CF93DF93CAE1D1E088810E94B80098818F
S11301C080910C01989F802D11240E94BE008AE02A
S11301D090E00E947600DF91CF91089580911601FE
S11301E00E94B80090910E0180910C01989F802D7F
S11301F011240E94BE008AE090E00E9476000895D7
S1130200809112010E94B8009091100180910C011C
S1130210989F802D11240E94BE008AE090E00E94E5
S113022076000895809114010E94B80090911801FD
S113023080910C01989F802D11240E94BE008AE0B9
S113024090E00E947600089580910E010E94B8000B
S11302509091160180910C01989F802D11240E9489
S1130260BE008AE090E00E9476000895CF93DF9369
S1130270CCE0D1E0909110018881989F802D1124C9
S11302800E94B800909112018881989F802D1124BA
S11302900E94BE008AE090E00E947600DF91CF9138
S11302A00895CF93DF93CCE0D1E090911801888139
S11302B0989F802D11240E94B80090911401888188
S11302C0989F802D11240E94BE008AE090E00E9435
S11302D07600DF91CF9108952091060130910701B6
S11302E0821793071CF40E94120134C020910A0162
S11302F030910B01821793071CF40E9400012AC05D
S11303002091040130910501821793071CF40E9487
S1130310EE0020C020910201309103012817390713
S11303201CF40E94510116C020910801309109016A
S1130330281739071CF40E9436010CC020910001D3
S113034030910101281739071CF40E94240102C0CE
S11303500E94D8008AE090E00E947600089584B15B
S1130360806284B984B18F7E84B90895109280002C
S1130370E1E8F0E0808182608083089585B1806245
S113038085B983E08A95F1F7000085B18F7D85B941
S11303901C9BFECF10928500109284001C99FECF06
S11303A08091840090918500969587956DE170E029
S11303B00E946602CB0108950E94530087E690E0F4
S11303C00E9497000E94AB000E94AF010E94B601F8
S11303D081E00E94C40081E00E94CE0080E00E947F
S11303E0B80080E00E94BE0078940E94A2009FEBB7
S11303F0980F933008F046C080931C0143C080E0FE
S11304000E9461006C0185E00E946100EC0182E0C1
S11304100E9461007C0181E00E9461008C0183E004
S11304200E94610096012C0F3D1FE701C20FD31FEC
S1130430C00FD11F8C0F9D1F65E070E00E94660203
S11304408B010E94BE01EC018AE090E00E947600DC
S1130450EC976CF480E00E94BE0080E00E94B8003B
S11304600E94BE018AE090E00E94760003C0C801A9
S11304700E946C010E94A2009EEB980F923010F42F
S113048080931C0180911C01813409F4B8CF80E071
S11304900E94B80080E00E94BE0080911C0182345A
S11304A081F488E893E10E94760081E480931C0142
S11304B008C00E94A2009FEB980F923010F4809322
S11304C01C0180911C018334A1F38FCF97FB072E6D
S11304D016F4009407D077FD09D00E947A0207FC35
S11304E005D03EF4909581959F4F08957095619540
S11304F07F4F0895AA1BBB1B51E107C0AA1FBB1F56
S1130500A617B70710F0A61BB70B881F991F5A959B
S1130510A9F780959095BC01CD010895F894FFCF7B
S1130520A302C1026C024E02B2025D0201002D0060
S10F05301900A000D20078000A0041006D
S9030000FC
