:100000000C9434000C9451000C9451000C94510049
:100010000C9451000C9451000C9451000C9451001C
:100020000C9451000C9451000C9451000C9451000C
:100030000C9451000C9451000C9451000C945100FC
:100040000C9451000C9451000C9451000C945100EC
:100050000C9451000C9451000C9451000C945100DC
:100060000C9451000C94510011241FBECFEFD8E026
:10007000DEBFCDBF11E0A0E0B1E0EAE2F5E002C0F2
:1000800005900D92A831B107D9F721E0A8E1B1E0C0
:1000900001C01D92A931B207E1F70E94DD010C9465
:1000A00093020C940000ECE7F0E080818064808390
:1000B000EAE7F0E0808187608083808180688083C8
:1000C0000895ECE7F0E09081907F8F70892B80831A
:1000D000EAE7F0E080818064808380917A0086FD89
:1000E000FCCF80917800909179000895CF93DF93B1
:1000F00000D0CDB7DEB740E050E011C01A821982BF
:1001000007C0000029813A812F5F3F4F3A8329833E
:1001100029813A8122353340A0F34F5F5F4F481762
:10012000590760F30F900F90DF91CF91089590934E
:10013000C5008093C40088E18093C10086E080936D
:10014000C20008958091C00088231CF48091C600ED
:10015000089580E008958AB180668AB984B5836A7B
:1001600084BD85B5836085BD84B18C6084B90895F4
:10017000811102C018BC089588BD0895811102C084
:1001800017BC089587BD0895813021F485B184603E
:1001900085B9089585B18B7F85B90895813021F4A3
:1001A00085B1886085B9089585B1877F85B908953F
:1001B000CF93DF9383EC99E00197F1F700C0000043
:1001C000C6E1D1E088818C5E0E94B80088818C5E97
:1001D0000E94BE0083EC99E00197F1F700C0000097
:1001E000DF91CF91089583EC99E00197F1F700C07A
:1001F0000000809112010E94B800809116010E94B7
:10020000BE0083EC99E00197F1F700C0000008956B
:1002100083EC99E00197F1F700C0000080910E0196
:100220000E94B80080910C010E94BE0083EC99E00E
:100230000197F1F700C00000089583EC99E0019761
:10024000F1F700C00000809110010E94B800809179
:1002500014010E94BE0083EC99E00197F1F700C001
:100260000000089583EC99E00197F1F700C00000C9
:10027000809116010E94B800809112010E94BE0078
:1002800083EC99E00197F1F700C00000089583EC3A
:1002900099E00197F1F700C0000080910C010E94E5
:1002A000B80080910E010E94BE0083EC99E0019796
:1002B000F1F700C00000089583EC99E00197F1F791
:1002C00000C00000809114010E94B80080911001CC
:1002D0000E94BE0083EC99E00197F1F700C0000096
:1002E00008952091060130910701821793071CF4AD
:1002F0000E941D01089520910A0130910B0182177F
:1003000093071CF40E940801089520910401309184
:100310000501821793071CF40E94F30008952091B1
:10032000020130910301281739071CF40E945C0177
:1003300008952091080130910901281739071CF40C
:100340000E94470108952091000130910101281772
:1003500039071CF40E94320108950E94D8000895C4
:1003600084B1806284B984B18F7E84B9089510927B
:100370008000E1E8F0E0808182608083089585B1AB
:10038000806285B983E08A95F1F7000085B18F7DA1
:1003900085B91C9BFECF10928500109284001C9999
:1003A000FECF8091840090918500969587956DE1B0
:1003B00070E00E946B02CB0108950E94530087E613
:1003C00090E00E9497000E94AB000E94B0010E9442
:1003D000B70181E00E94C40081E00E94CE0080E06D
:1003E0000E94B80080E00E94BE0078940E94A200A3
:1003F0009FEB980F933008F04AC08093180147C0D4
:1004000080E00E9461004E976C0185E00E946100CF
:10041000EC0182E00E9461007C0181E00E946100A9
:100420008C010E51110983E00E94610044979601EE
:100430002C0F3D1FE701C20FD31FC00FD11F8C0F20
:100440009D1F65E070E00E946B028B010E94BF015E
:10045000EC018AE090E00E947600EC976CF480E07A
:100460000E94BE0080E00E94B8000E94BF018AE0A6
:1004700090E00E94760003C0C8010E9471010E94B2
:10048000A2009EEB980F923010F480931801809197
:100490001801813409F4B4CF80E00E94B80080E0F4
:1004A0000E94BE0080911801823481F488E893E1B3
:1004B0000E94760081E48093180108C00E94A20087
:1004C0009FEB980F923010F48093180180911801DF
:1004D0008334A1F38BCF97FB072E16F4009407D03B
:1004E00077FD09D00E947F0207FC05D03EF490956D
:1004F00081959F4F0895709561957F4F0895AA1B30
:10050000BB1B51E107C0AA1FBB1FA617B70710F0FE
:10051000A61BB70B881F991F5A95A9F78095909530
:0A052000BC01CD010895F894FFCF4F
:10052A00AD02CB0276025802BC026702190096009D
:08053A00C80078000A002D0042
:00000001FF
