S0110000526F626F74526163652E7372656392
S11300000C9434000C9451000C9451000C94510045
S11300100C9451000C9451000C9451000C94510018
S11300200C9451000C9451000C9451000C94510008
S11300300C9451000C9451000C9451000C945100F8
S11300400C9451000C9451000C9451000C945100E8
S11300500C9451000C9451000C9451000C945100D8
S11300600C9451000C94510011241FBECFEFD8E022
S1130070DEBFCDBF11E0A0E0B1E0E6E9FDE002C0E3
S113008005900D92A231B107D9F721E0A2E1B1E0C8
S113009001C01D92A331B207E1F70E9407010C943D
S11300A0C9060C94000021E0209312012091120152
S11300B0222321F090938900809388000895ECE72F
S11300C0F0E0808180648083EAE7F0E080818760EB
S11300D080838081806880830895ECE7F0E09081DC
S11300E0907F8F70892B8083EAE7F0E080818064C1
S11300F0808380917A0086FDFCCF80917800909176
S1130100790008959093C5008093C40088E180939A
S1130110C10086E08093C20008959091C00095FFCD
S1130120FCCF8093C60008958AB180668AB984B5ED
S1130130836A84BD85B5836085BD0895811102C03D
S113014018BC089588BD0895811102C017BC089594
S113015087BD0895813021F48BB184608BB90895F3
S11301608BB18B7F8BB90895813021F48BB1806181
S11301708BB908958BB18F7E8BB9089584B1826059
S113018084B982E88093800083E080936F00809339
S1130190890087EE809388008CE9809387008FE341
S11301A0809386008AE1809381000895CF92DF9244
S11301B0EF92FF92CF93DF93EB01BC0180E090E0DC
S11301C00E94D6026B017C01BE0180E090E00E9497
S11301D0D6029B01AC01C701B6010E94350220E0A2
S11301E030E04AE755E40E94640320E030EC49E73C
S11301F054E40E94C9010E94A702CB010E9453004B
S1130200DF91CF91FF90EF90DF90CF900895CF933F
S1130210DF93CDB7DEB7C055D1090FB6F894DEBF72
S11302200FBECDBF0E945F0087E690E00E9482006F
S11302300E9494000E94BE0084B1846084B964EB7F
S113024070E080E090E00E94D60085B1846085B9BA
S11302508AB184618AB9789400E010E00DC064EB3F
S113026070E0C8010E94D6008FE097E20197F1F791
S113027000C000000F5F1F4F053B110584F304EB22
S113028010E00DC064EB70E0C8010E94D6008FE05E
S113029097E20197F1F700C0000001501109112302
S11302A08CF785B1846085B985E00E946D008C016E
S11302B004571F4F680182E00E946D0082599F4FCE
S11302C05C0181E00E946D007C0182E08F938AE3EF
S11302D08F93FF92EF92BF92AF921F930F9381E09F
S11302E08F938AEE8F9380E091E09F938F931F9278
S11302F080E58F93CE0101969F938F930E94D10343
S11303000FB6F894DEBF0FBECDBF00E010E004C00E
S11303100E948D000F5F1F4FE1E0F0E0EC0FFD1F26
S1130320E00FF11F80818111F3CF83EC99E00197F5
S1130330F1F700C0000085B1846085B983EC99E0D1
S11303400197F1F700C000009DECC91691E0D906B1
S113035094F088E5E81682E0F8066CF481E00E94E7
S1130360AA0080E00E949E0081E00E94B40080E028
S11303700E94A40006C08AE50E949E008AE50E94AD
S1130380A40087EA91E60197F1F700C0000064CF6A
S11303905058BB27AA270E94E0010C942A030E940C
S11303A01C0338F00E94230320F039F49F3F19F412
S11303B026F40C9419030EF4E095E7FB0C94130354
S11303C0E92F0E943B0358F3BA17620773078407A7
S11303D0950720F079F4A6F50C945D030EF4E095EE
S11303E00B2EBA2FA02D0B01B90190010C01CA01EB
S11303F0A0011124FF27591B99F0593F50F4503E96
S113040068F11A16F040A22F232F342F4427585F87
S1130410F3CF469537952795A795F0405395C9F79F
S11304207EF41F16BA0B620B730B840BBAF0915057
S1130430A1F0FF0FBB1F661F771F881FC2F70EC0F6
S1130440BA0F621F731F841F48F4879577956795C9
S1130450B795F7959E3F08F0B0CF9395880F08F0B5
S11304609927EE0F9795879508950E9449020C9459
S11304702A030E94230358F00E941C0340F029F42D
S11304805F3F29F00C94130351110C945E030C94F8
S113049019030E943B0368F39923B1F3552391F3A5
S11304A0951B550BBB27AA2762177307840738F0DF
S11304B09F5F5F4F220F331F441FAA1FA9F335D03C
S11304C00E2E3AF0E0E832D091505040E695001CF0
S11304D0CAF72BD0FE2F29D0660F771F881FBB1FAA
S11304E0261737074807AB07B0E809F0BB0B802D88
S11304F0BF01FF2793585F4F3AF09E3F510578F0B4
S11305000C9413030C945E035F3FE4F3983ED4F31E
S1130510869577956795B795F7959F5FC9F7880F87
S1130520911D9695879597F90895E1E0660F771FD9
S1130530881FBB1F621773078407BA0720F0621B6A
S1130540730B840BBA0BEE1F88F7E09508950E9495
S1130550430388F09F5798F0B92F9927B751B0F00B
S1130560E1F0660F771F881F991F1AF0BA95C9F733
S113057014C0B13091F00E945D03B1E008950C9471
S11305805D03672F782F8827B85F39F0B93FCCF324
S1130590869577956795B395D9F73EF490958095B0
S11305A0709561957F4F8F4F9F4F0895E89409C0D0
S11305B097FB3EF490958095709561957F4F8F4F92
S11305C09F4F9923A9F0F92F96E9BB279395F695A8
S11305D0879577956795B795F111F8CFFAF4BB0F26
S11305E011F460FF1BC06F5F7F4F8F4F9F4F16C08A
S11305F0882311F096E911C0772321F09EE8872F14
S1130600762F05C0662371F096E8862F70E060E0CF
S11306102AF09A95660F771F881FDAF7880F969548
S1130620879597F9089597F99F6780E870E060E0EF
S113063008959FEF80EC089500240A941616170677
S113064018060906089500240A94121613061406BF
S113065005060895092E0394000C11F4882352F022
S1130660BB0F40F4BF2B11F460FF04C06F5F7F4FDA
S11306708F4F9F4F089557FD9058440F551F59F0C1
S11306805F3F71F04795880F97FB991F61F09F3F7B
S113069079F087950895121613061406551FF2CFA4
S11306A04695F1DF08C0161617061806991FF1CFF4
S11306B086957105610508940895E894BB2766271B
S11306C07727CB0197F908950E9477030C942A03A6
S11306D00E941C0338F00E94230320F0952311F09C
S11306E00C9413030C94190311240C945E030E94BC
S11306F03B0370F3959FC1F3950F50E0551F629F24
S1130700F001729FBB27F00DB11D639FAA27F00D66
S1130710B11DAA1F649F6627B00DA11D661F829F8D
S11307202227B00DA11D621F739FB00DA11D621F72
S1130730839FA00D611D221F749F3327A00D611D8F
S1130740231F849F600D211D822F762F6A2F112471
S11307509F5750409AF0F1F088234AF0EE0FFF1FA4
S1130760BB1F661F771F881F91505040A9F79E3FFB
S1130770510580F00C9413030C945E035F3FE4F383
S1130780983ED4F3869577956795B795F795E79551
S11307909F5FC1F7FE2B880F911D9695879597F95A
S11307A00895AEE0B0E0E7EDF3E00C94A0060D8907
S11307B01E898F89988D26E02C831A83098397FFDD
S11307C002C080E090E801979E838D83AE01455E70
S11307D05F4F698D7A8DCE0101960E9401044D818F
S11307E05E8157FD0AC02F813885421753070CF4E8
S11307F09A01F801E20FF31F10822E96E4E00C94A4
S1130800BC06ABE0B0E0E7E0F4E00C9492066C01C7
S11308107B018A01FC0117821682838181FFCCC18E
S1130820CE0101963C01F6019381F70193FD859178
S113083093FF81917F01882309F4BAC1853239F489
S113084093FD859193FF81917F01853229F4B6014F
S113085090E00E94F805E7CF912C212C312CFFE188
S1130860F315D8F08B3279F038F4803279F0833292
S1130870A1F4232D20611DC08D3261F0803369F411
S1130880232D216016C0832D8260382EE32DE46071
S11308903E2E2AC0F32DF8601DC037FC2DC020ED7C
S11308A0280F2A3040F08E32B9F436FC81C1232D52
S11308B02064322E19C036FE06C08AE0989E200DB0
S11308C01124922E11C0EAE02E9E200D1124222E16
S11308D0F32DF0623F2E08C08C3621F4832D8068FE
S11308E0382E02C0883641F4F70193FD859193FFB9
S11308F081917F018111B3CF982F9F7D95549330BF
S113090028F40C5F1F4F9FE399830DC0833631F0A9
S1130910833771F0833509F059C021C0F801808113
S113092089830E5F1F4F88248394912C530113C035
S11309302801F2E04F0E511CF801A080B18036FE70
S113094003C0692D70E002C06FEF7FEFC5010E9404
S1130950ED054C018201F32DFF773F2E16C02801CF
S113096022E0420E511CF801A080B18036FE03C083
S1130970692D70E002C06FEF7FEFC5010E94E205B0
S11309804C01F32DF0683F2E820133FC1BC0822DF5
S113099090E088169906B0F4B60180E290E00E94D7
S11309A0F8052A94F4CFF50137FC859137FE81913F
S11309B05F01B60190E00E94F80521102A9421E01D
S11309C0821A91088114910471F7E8C0843611F0F9
S11309D0893641F5F80137FE07C060817181828153
S11309E093810C5F1F4F08C060817181072E000C3A
S11309F0880B990B0E5F1F4FF32DFF763F2E97FF49
S1130A0009C090958095709561957F4F8F4F9F4F4A
S1130A10F0683F2E2AE030E0A3010E943406882EBD
S1130A20861845C0853731F4232D2F7EB22E2AE057
S1130A3030E025C0932D997FB92E8F36C1F018F47C
S1130A40883579F0B5C0803719F0883721F0B0C007
S1130A50E92FE061BE2EB4FE0DC0FB2DF460BF2E65
S1130A6009C034FE0AC0292F2660B22E06C028E031
S1130A7030E005C020E130E002C020E132E0F801BE
S1130A80B7FE07C060817181828193810C5F1F4F23
S1130A9006C06081718180E090E00E5F1F4FA3016A
S1130AA00E943406882E8618FB2DFF773F2E36FED3
S1130AB00DC0232D2E7FA22E891458F434FE0BC0B2
S1130AC032FC09C0832D8E7EA82E05C0B82CA32C21
S1130AD003C0B82C01C0B92CA4FE0FC0FE01E80D60
S1130AE0F11D8081803321F49A2D997EA92E09C0AD
S1130AF0A2FE06C0B394B39404C08A2D867809F08C
S1130B00B394A3FC11C0A0FE06C0B21488F4280C50
S1130B10922C9B180EC0B21460F4B60180E290E0EF
S1130B200E94F805B394F7CFB21418F42B1802C03E
S1130B30982C212CA4FE10C0B60180E390E00E9402
S1130B40F805A2FE17C0A1FC03C088E790E002C02C
S1130B5088E590E0B6010CC08A2D867859F0A1FE94
S1130B6002C08BE201C080E2A7FC8DE2B60190E0F6
S1130B700E94F805891438F4B60180E390E00E94DD
S1130B80F8059A94F7CF8A94F301E80DF11D80815A
S1130B90B60190E00E94F8058110F5CF222009F4F7
S1130BA042CEB60180E290E00E94F8052A94F6CF86
S1130BB0F6018681978102C08FEF9FEF2B96E2E1C9
S1130BC00C94AE06FC010590615070400110D8F7FA
S1130BD0809590958E0F9F1F0895FC016150704081
S1130BE001900110D8F7809590958E0F9F1F08955E
S1130BF00F931F93CF93DF93FB01238121FD03C048
S1130C008FEF9FEF2CC022FF16C0468157812481AD
S1130C1035814217530744F4A081B1819D012F5FB0
S1130C203F4F318320838C93268137812F5F3F4F41
S1130C303783268314C08B01EC01FB010084F1850A
S1130C40E02D0995892BE1F6D80116968D919C919A
S1130C501797019617969C938E931697CE01DF9162
S1130C60CF911F910F910895FA01AA27283051F1CD
S1130C70203181F1E8946F936E7F6E5F7F4F8F4FC9
S1130C809F4FAF4FB1E03ED0B4E03CD0670F781F28
S1130C90891F9A1FA11D680F791F8A1F911DA11D0D
S1130CA06A0F711D811D911DA11D20D009F4689446
S1130CB03F912AE0269F11243019305D3193DEF6EE
S1130CC0CF010895462F4770405D4193B3E00FD0A4
S1130CD0C9F7F6CF462F4F70405D4A3318F0495D8F
S1130CE031FD4052419302D0A9F7EACFB4E0A69572
S1130CF09795879577956795BA95C9F70097610594
S1130D00710508959B01AC010A2E069457954795E9
S1130D1037952795BA95C9F7620F731F841F951FDE
S1130D20A01D08952F923F924F925F926F927F92EF
S1130D308F929F92AF92BF92CF92DF92EF92FF92E7
S1130D400F931F93CF93DF93CDB7DEB7CA1BDB0B93
S1130D500FB6F894DEBF0FBECDBF09942A88398838
S1130D6048885F846E847D848C849B84AA84B9843F
S1130D70C884DF80EE80FD800C811B81AA81B9814B
S1130D80CE0FD11D0FB6F894DEBF0FBECDBFED015F
S1090D900895F894FFCF62
S1130D962564202564202564202564202564200AF2
S1050DA6000047
S9030000FC
