S0110000526F626F74526163652E7372656392
S11300000C9434000C943E000C943E000C943E007E
S11300100C943E000C943E000C943E000C943E0064
S11300200C943E000C943E000C943E000C943E0054
S11300300C943E000C943E000C943E000C943E0044
S11300400C943E000C943E000C943E000C943E0034
S11300500C943E000C943E000C943E000C943E0024
S11300600C943E000C943E0011241FBECFEFD8E048
S1130070DEBFCDBF0E9463000C9479000C94000095
S113008083B183FB882780F9089589B1881F882765
S1130090881F089583B18170089584B1877F84B9DE
S11300A08AB18F778AB984B18E7F84B985B188602B
S11300B085B98BB180688BB985B1816085B90895A4
S11300C00E944D0008950E9460000E94400081300B
S11300D061F40E944500813041F40E944A0081305D
S11300E021F483B1846083B9F0CF85B18B7F85B966
S10900F0ECCFF894FFCFF1
S9030000FC
