S0110000526F626F74526163652E7372656392
S11300000C9434000C9451000C9451000C94510045
S11300100C9451000C9451000C9451000C94510018
S11300200C9451000C9451000C9451000C94510008
S11300300C9451000C9451000C9451000C945100F8
S11300400C9451000C9451000C9451000C945100E8
S11300500C9451000C9451000C9451000C945100D8
S11300600C9451000C94510011241FBECFEFD8E022
S1130070DEBFCDBF11E0A0E0B1E0EAE4FAE002C0E7
S113008005900D92A231B107D9F721E0A2E1B1E0C8
S113009001C01D92A231B207E1F70E94DC000C946A
S11300A023050C940000ECE7F0E0808180648083F9
S11300B0EAE7F0E0808187608083808180688083C4
S11300C00895ECE7F0E09081907F8F70892B808316
S11300D0EAE7F0E080818064808380917A0086FD85
S11300E0FCCF80917800909179000895CF93DF93AD
S11300F000D0CDB7DEB740E050E011C01A821982BB
S113010007C0000029813A812F5F3F4F3A8329833A
S113011029813A8122353340A0F34F5F5F4F48175E
S1130120590760F30F900F90DF91CF91089590934A
S1130130C5008093C40088E18093C10086E0809369
S1130140C20008959091C00095FFFCCF8093C60033
S113015008958091C00088231CF48091C6000895FE
S113016080E008958AB180668AB984B5836A84BDC3
S113017085B5836085BD0895811102C018BC0895BA
S113018088BD0895811102C017BC089587BD0895E4
S1130190813021F485B1846085B9089585B18B7F60
S11301A085B90895813021F485B1886085B90895B1
S11301B085B1877F85B90895CF93DF93CDB7DEB737
S11301C0C055D1090FB6F894DEBF0FBECDBF0E9453
S11301D0530087E690E00E9497000E94B20084B129
S11301E0846084B985B1846085B984B18C6084B934
S11301F081E00E94C80081E00E94D200789480E0EF
S11302000E9461008C0185E00E94610084579F4F29
S11302105C013C0182E00E94610082599F4F4C01C5
S11302202C0181E00E9461006C0183E00E94610066
S11302307C0182E390E00E947600FF92EF92DF92CD
S1130240CF929F928F92BF92AF921F930F9380E0B1
S113025091E09F938F931F9280E58F93CE01019637
S11302609F938F930E942B020FB6F894DEBF0FBEAC
S1130270CDBFA12CB12C05C00E94A2009FEFA91AEA
S1130280B90AE1E0F0E0EC0FFD1FEA0DFB1D8081EF
S11302908111F2CF82E390E00E9476000E94A900CF
S11302A0B82E8AE090E00E94760081E4B81204C07F
S11302B085B1846085B945C092E4B9120BC085B19B
S11302C08B7F85B988E893E10E94760085B18460CC
S11302D085B937C083E4B81204C085B18B7F85B972
S11302E030C0B1101FC089E40E94A20080E20E94C5
S11302F0A20081E40E94A2008DE40E94A20080E298
S11303000E94A20082E50E94A20085E40E94A2004D
S113031081E40E94A20084E40E94A20089E50E9474
S1130320A2000FC085E40E94A20082E50E94A20000
S113033082E50E94A2008FE40E94A20082E50E944E
S1130340A20083EC99E00197F1F700C000000B3E96
S113035091E0190704F18BEE681681E07806DCF071
S11303609BEE491691E05906B4F08AE3481682E000
S113037058068CF49AE3C91692E0D90664F48AE329
S1130380E81682E0F8063CF48AE50E94BC008AE59F
S11303900E94C20059C00A3E91E0190794F48AEE03
S11303A0681681E078063CF48DE20E94BC008AE580
S11303B00E94C20006C08BE40E94BC008AE50E9431
S11303C0C2009BE3E91692E0F90694F08BE3C816A9
S11303D082E0D8063CF08AE50E94BC008DE20E94CF
S11303E0C20006C08AE50E94BC008DE20E94C200E1
S11303F09AEEE91691E0F90694F48BE3C81682E0CC
S1130400D8063CF08AE50E94BC008DE20E94C2003E
S113041006C08AE50E94BC008DE20E94C2000B3334
S1130420124094F08BE3C81682E0D8063CF08DE2CB
S11304300E94BC008AE50E94C20006C08BE40E94B0
S1130440BC008AE50E94C20087EA91E60197F1F7B1
S113045000C00000D4CEAEE0B0E0E1E3F2E00C94E2
S1130460FA040D891E898F89988D26E02C831A83BE
S1130470098397FF02C080E090E801979E838D83F3
S1130480AE01455E5F4F698D7A8DCE0101960E9463
S11304905B024D815E8157FD0AC02F81388542176A
S11304A053070CF49A01F801E20FF31F10822E9601
S11304B0E4E00C941605ABE0B0E0E1E6F2E00C9465
S11304C0EC046C017B018A01FC0117821682838192
S11304D081FFCCC1CE0101963C01F6019381F70165
S11304E093FD859193FF81917F01882309F4BAC11B
S11304F0853239F493FD859193FF81917F01853293
S113050029F4B60190E00E945204E7CF912C212CEB
S1130510312CFFE1F315D8F08B3279F038F48032C6
S113052079F08332A1F4232D20611DC08D3261F056
S1130530803369F4232D216016C0832D8260382E08
S1130540E32DE4603E2E2AC0F32DF8601DC037FC75
S11305502DC020ED280F2A3040F08E32B9F436FC3D
S113056081C1232D2064322E19C036FE06C08AE0D4
S1130570989E200D1124922E11C0EAE02E9E200D8B
S11305801124222EF32DF0623F2E08C08C3621F464
S1130590832D8068382E02C0883641F4F70193FD1C
S11305A0859193FF81917F018111B3CF982F9F7D16
S11305B09554933028F40C5F1F4F9FE399830DC02B
S11305C0833631F0833771F0833509F059C021C087
S11305D0F801808189830E5F1F4F88248394912CB6
S11305E0530113C02801F2E04F0E511CF801A08002
S11305F0B18036FE03C0692D70E002C06FEF7FEF5B
S1130600C5010E9447044C018201F32DFF773F2E60
S113061016C0280122E0420E511CF801A080B180CE
S113062036FE03C0692D70E002C06FEF7FEFC50195
S11306300E943C044C01F32DF0683F2E820133FCF0
S11306401BC0822D90E088169906B0F4B60180E2B2
S113065090E00E9452042A94F4CFF50137FC85916E
S113066037FE81915F01B60190E00E94520421108F
S11306702A9421E0821A91088114910471F7E8C048
S1130680843611F0893641F5F80137FE07C06081E0
S11306907181828193810C5F1F4F08C060817181D9
S11306A0072E000C880B990B0E5F1F4FF32DFF765E
S11306B03F2E97FF09C090958095709561957F4F67
S11306C08F4F9F4FF0683F2E2AE030E0A3010E9435
S11306D08E04882E861845C0853731F4232D2F7E4D
S11306E0B22E2AE030E025C0932D997FB92E8F36A3
S11306F0C1F018F4883579F0B5C0803719F088371F
S113070021F0B0C0E92FE061BE2EB4FE0DC0FB2D78
S1130710F460BF2E09C034FE0AC0292F2660B22E11
S113072006C028E030E005C020E130E002C020E14E
S113073032E0F801B7FE07C0608171818281938144
S11307400C5F1F4F06C06081718180E090E00E5FF6
S11307501F4FA3010E948E04882E8618FB2DFF775D
S11307603F2E36FE0DC0232D2E7FA22E891458F461
S113077034FE0BC032FC09C0832D8E7EA82E05C02A
S1130780B82CA32C03C0B82C01C0B92CA4FE0FC0F4
S1130790FE01E80DF11D8081803321F49A2D997EAC
S11307A0A92E09C0A2FE06C0B394B39404C08A2D36
S11307B0867809F0B394A3FC11C0A0FE06C0B2145D
S11307C088F4280C922C9B180EC0B21460F4B60165
S11307D080E290E00E945204B394F7CFB21418F46C
S11307E02B1802C0982C212CA4FE10C0B60180E363
S11307F090E00E945204A2FE17C0A1FC03C088E747
S113080090E002C088E590E0B6010CC08A2D86789D
S113081059F0A1FE02C08BE201C080E2A7FC8DE288
S1130820B60190E00E945204891438F4B60180E3C2
S113083090E00E9452049A94F7CF8A94F301E80D51
S1130840F11D8081B60190E00E9452048110F5CF21
S1130850222009F442CEB60180E290E00E945204C4
S11308602A94F6CFF6018681978102C08FEF9FEF1D
S11308702B96E2E10C940805FC0105906150704050
S11308800110D8F7809590958E0F9F1F0895FC0155
S11308906150704001900110D8F7809590958E0FAB
S11308A09F1F08950F931F93CF93DF93FB01238121
S11308B021FD03C08FEF9FEF2CC022FF16C046819D
S11308C05781248135814217530744F4A081B181B3
S11308D09D012F5F3F4F318320838C932681378185
S11308E02F5F3F4F3783268314C08B01EC01FB013C
S11308F00084F185E02D0995892BE1F6D80116963F
S11309008D919C911797019617969C938E931697A9
S1130910CE01DF91CF911F910F910895FA01AA277B
S1130920283051F1203181F1E8946F936E7F6E5F2E
S11309307F4F8F4F9F4FAF4FB1E03ED0B4E03CD0DC
S1130940670F781F891F9A1FA11D680F791F8A1FBF
S1130950911DA11D6A0F711D811D911DA11D20D026
S113096009F468943F912AE0269F11243019305DE0
S11309703193DEF6CF010895462F4770405D4193D1
S1130980B3E00FD0C9F7F6CF462F4F70405D4A331E
S113099018F0495D31FD4052419302D0A9F7EACFE6
S11309A0B4E0A6959795879577956795BA95C9F715
S11309B000976105710508959B01AC010A2E069408
S11309C05795479537952795BA95C9F7620F731FC1
S11309D0841F951FA01D08952F923F924F925F92FE
S11309E06F927F928F929F92AF92BF92CF92DF923B
S11309F0EF92FF920F931F93CF93DF93CDB7DEB7A0
S1130A00CA1BDB0B0FB6F894DEBF0FBECDBF099433
S1130A102A88398848885F846E847D848C849B848A
S1130A20AA84B984C884DF80EE80FD800C811B8198
S1130A30AA81B981CE0FD11D0FB6F894DEBF0FBEC7
S10D0A40CDBFED010895F894FFCF37
S1130A4A2564202564202564202564202564200A41
S1050A5A000096
S9030000FC
