S0110000526F626F74526163652E7372656392
S11300000C9434000C9451000C9451000C94510045
S11300100C9451000C9451000C9451000C94510018
S11300200C9451000C9451000C9451000C94510008
S11300300C9451000C9451000C9451000C945100F8
S11300400C9451000C9451000C9451000C945100E8
S11300500C9451000C9451000C9451000C945100D8
S11300600C9451000C94510011241FBECFEFD8E022
S1130070DEBFCDBF11E0A0E0B1E0E2E6FAE002C0ED
S113008005900D92A831B107D9F721E0A8E1B1E0BC
S113009001C01D92AA31B207E1F70E94DC000C9462
S11300A02F050C940000ECE7F0E0808180648083ED
S11300B0EAE7F0E0808187608083808180688083C4
S11300C00895ECE7F0E09081907F8F70892B808316
S11300D0EAE7F0E080818064808380917A0086FD85
S11300E0FCCF80917800909179000895CF93DF93AD
S11300F000D0CDB7DEB740E050E011C01A821982BB
S113010007C0000029813A812F5F3F4F3A8329833A
S113011029813A8122353340A0F34F5F5F4F48175E
S1130120590760F30F900F90DF91CF91089590934A
S1130130C5008093C40088E18093C10086E0809369
S1130140C20008959091C00095FFFCCF8093C60033
S113015008958091C00088231CF48091C6000895FE
S113016080E008958AB180668AB984B5836A84BDC3
S113017085B5836085BD0895811102C018BC0895BA
S113018088BD0895811102C017BC089587BD0895E4
S1130190813021F485B1846085B9089585B18B7F60
S11301A085B90895813021F485B1886085B90895B1
S11301B085B1877F85B90895CF93DF93CDB7DEB737
S11301C0C455D1090FB6F894DEBF0FBECDBF0E944F
S11301D0530087E690E00E9497000E94B20084B129
S11301E0846084B985B1846085B984B18C6084B934
S11301F081E00E94C80081E00E94D20080E00E9459
S1130200BC0080E00E94C200789481E090E0659692
S11302109FAF8EAF659780E00E9461008C01085DFE
S11302201F4F380185E00E94610088589F4F7C0170
S11302302C0182E00E946100865A9F4F6C016396F4
S11302409FAF8EAF639781E00E9461004C0183E011
S11302500E94610088965C011C0182E390E00E9488
S11302607600BF92AF929F928F92DF92CF92FF92CD
S1130270EF921F930F9386E091E09F938F931F92C9
S113028080E58F93CE0101969F938F930E9437024E
S11302900FB6F894DEBF0FBECDBF00E010E004C07F
S11302A00E94A2000F5F1F4FE1E0F0E0EC0FFD1F82
S11302B0E00FF11F80818111F3CF87E893E101976B
S11302C0F1F700C000000E94A900182FE3ECF9E048
S11302D03197F1F700C00000813451F0823409F005
S11302E086C065968EAD9FAD6597019709F07FC076
S11302F01234A1F46596EEADFFAD6597EF2B71F066
S113030080E00E94BC0080E00E94C20088E893E183
S11303100E94760065961FAE1EAE6597113431F4C7
S113032081E090E065969FAF8EAF659797E269167E
S113033092E079062CF1E7E24E16E2E05E0604F163
S113034063968EAD9FAD63978732E2E09E07C4F05B
S113035082309340ACF422E0821623E0920684F4C7
S113036082E0281683E038065CF408E111E0F80125
S113037080810E94BC00F80180810E94C20070C08C
S1130380F6E26F16F2E07F06BCF426E2421622E0A3
S113039052064CF4809104010E94BC00809100013B
S11303A00E94C2005DC0809104010E94BC00809143
S11303B002010E94C20054C083E0281638060CF4DF
S11303C04FC093E0891699064CF0809100010E9479
S11303D0BC00809104010E94C20042C080910201CD
S11303E00E94BC00809104010E94C20039C01334F1
S11303F039F480E00E94BC0080E00E94C20030C05A
S113040011111FC089E40E94A20080E20E94A20090
S113041081E40E94A2008DE40E94A20080E20E9476
S1130420A20082E50E94A20085E40E94A20081E469
S11304300E94A20084E40E94A20089E50E94A20016
S11304400FC085E40E94A20082E50E94A20082E51A
S11304500E94A2008FE40E94A20082E50E94A200F2
S1130460E7EAF1E63197F1F700C00000D4CEAEE040
S1130470B0E0EDE3F2E00C9406050D891E898F8946
S1130480988D26E02C831A83098397FF02C080E0AD
S113049090E801979E838D83AE01455E5F4F698D21
S11304A07A8DCE0101960E9467024D815E8157FDCF
S11304B00AC02F813885421753070CF49A01F801BA
S11304C0E20FF31F10822E96E4E00C942205ABE0B9
S11304D0B0E0EDE6F2E00C94F8046C017B018A01D3
S11304E0FC0117821682838181FFCCC1CE01019663
S11304F03C01F6019381F70193FD859193FF81916E
S11305007F01882309F4BAC1853239F493FD8591BA
S113051093FF81917F01853229F4B60190E00E9416
S11305205E04E7CF912C212C312CFFE1F315D8F098
S11305308B3279F038F4803279F08332A1F4232DB0
S113054020611DC08D3261F0803369F4232D216058
S113055016C0832D8260382EE32DE4603E2E2AC01F
S1130560F32DF8601DC037FC2DC020ED280F2A3074
S113057040F08E32B9F436FC81C1232D2064322E32
S113058019C036FE06C08AE0989E200D1124922ED2
S113059011C0EAE02E9E200D1124222EF32DF062CC
S11305A03F2E08C08C3621F4832D8068382E02C07B
S11305B0883641F4F70193FD859193FF81917F0182
S11305C08111B3CF982F9F7D9554933028F40C5FFD
S11305D01F4F9FE399830DC0833631F0833771F049
S11305E0833509F059C021C0F801808189830E5FE9
S11305F01F4F88248394912C530113C02801F2E0E7
S11306004F0E511CF801A080B18036FE03C0692D45
S113061070E002C06FEF7FEFC5010E9453044C01EC
S11306208201F32DFF773F2E16C0280122E0420EEF
S1130630511CF801A080B18036FE03C0692D70E022
S113064002C06FEF7FEFC5010E9448044C01F32DF7
S1130650F0683F2E820133FC1BC0822D90E0881687
S11306609906B0F4B60180E290E00E945E042A94F8
S1130670F4CFF50137FC859137FE81915F01B60116
S113068090E00E945E0421102A9421E0821A9108CD
S11306908114910471F7E8C0843611F0893641F56C
S11306A0F80137FE07C060817181828193810C5FFC
S11306B01F4F08C060817181072E000C880B990BB5
S11306C00E5F1F4FF32DFF763F2E97FF09C09095C5
S11306D08095709561957F4F8F4F9F4FF0683F2EA7
S11306E02AE030E0A3010E949A04882E861845C0AF
S11306F0853731F4232D2F7EB22E2AE030E025C039
S1130700932D997FB92E8F36C1F018F4883579F07E
S1130710B5C0803719F0883721F0B0C0E92FE06107
S1130720BE2EB4FE0DC0FB2DF460BF2E09C034FEF6
S11307300AC0292F2660B22E06C028E030E005C08A
S113074020E130E002C020E132E0F801B7FE07C04A
S113075060817181828193810C5F1F4F06C060812B
S1130760718180E090E00E5F1F4FA3010E949A0404
S1130770882E8618FB2DFF773F2E36FE0DC0232DC5
S11307802E7FA22E891458F434FE0BC032FC09C00B
S1130790832D8E7EA82E05C0B82CA32C03C0B82CA4
S11307A001C0B92CA4FE0FC0FE01E80DF11D80812B
S11307B0803321F49A2D997EA92E09C0A2FE06C089
S11307C0B394B39404C08A2D867809F0B394A3FC3F
S11307D011C0A0FE06C0B21488F4280C922C9B18F9
S11307E00EC0B21460F4B60180E290E00E945E0490
S11307F0B394F7CFB21418F42B1802C0982C212C00
S1130800A4FE10C0B60180E390E00E945E04A2FE44
S113081017C0A1FC03C088E790E002C088E590E01F
S1130820B6010CC08A2D867859F0A1FE02C08BE275
S113083001C080E2A7FC8DE2B60190E00E945E0454
S1130840891438F4B60180E390E00E945E049A941F
S1130850F7CF8A94F301E80DF11D8081B60190E091
S11308600E945E048110F5CF222009F442CEB60125
S113087080E290E00E945E042A94F6CFF60186811D
S1130880978102C08FEF9FEF2B96E2E10C94140541
S1130890FC010590615070400110D8F78095909547
S11308A08E0F9F1F0895FC0161507040019001104C
S11308B0D8F7809590958E0F9F1F08950F931F93DF
S11308C0CF93DF93FB01238121FD03C08FEF9FEFC3
S11308D02CC022FF16C046815781248135814217DE
S11308E0530744F4A081B1819D012F5F3F4F3183B1
S11308F020838C93268137812F5F3F4F3783268354
S113090014C08B01EC01FB010084F185E02D0995F5
S1130910892BE1F6D80116968D919C911797019633
S113092017969C938E931697CE01DF91CF911F91CA
S11309300F910895FA01AA27283051F1203181F14D
S1130940E8946F936E7F6E5F7F4F8F4F9F4FAF4FD3
S1130950B1E03ED0B4E03CD0670F781F891F9A1FE6
S1130960A11D680F791F8A1F911DA11D6A0F711D9A
S1130970811D911DA11D20D009F468943F912AE0A6
S1130980269F11243019305D3193DEF6CF0108958E
S1130990462F4770405D4193B3E00FD0C9F7F6CFBF
S11309A0462F4F70405D4A3318F0495D31FD405287
S11309B0419302D0A9F7EACFB4E0A695979587951D
S11309C077956795BA95C9F70097610571050895FC
S11309D09B01AC010A2E06945795479537952795A8
S11309E0BA95C9F7620F731F841F951FA01D089540
S11309F02F923F924F925F926F927F928F929F922B
S1130A00AF92BF92CF92DF92EF92FF920F931F9318
S1130A10CF93DF93CDB7DEB7CA1BDB0B0FB6F894C9
S1130A20DEBF0FBECDBF09942A88398848885F8409
S1130A306E847D848C849B84AA84B984C884DF807A
S1130A40EE80FD800C811B81AA81B981CE0FD11D5E
S1130A500FB6F894DEBF0FBECDBFED010895F89434
S1050A60FFCFC2
S1130A6214002800460025642025642025642025DE
S10B0A7264202564200A000041
S9030000FC
