S0110000526F626F74526163652E7372656392
S11300000C9434000C9451000C9451000C94510045
S11300100C9451000C9451000C9451000C94510018
S11300200C9451000C9451000C9451000C94510008
S11300300C9451000C9451000C9451000C945100F8
S11300400C9451000C9451000C9451000C945100E8
S11300500C9451000C9451000C9451000C945100D8
S11300600C9451000C94510011241FBECFEFD8E022
S1130070DEBFCDBF11E0A0E0B1E0EAE8F4E002C0E9
S113008005900D92AA31B107D9F721E0AAE1B1E0B8
S113009001C01D92AB31B207E1F70E948B010C94B1
S11300A043020C940000ECE7F0E0808180648083DC
S11300B0EAE7F0E0808187608083808180688083C4
S11300C00895ECE7F0E09081907F8F70892B808316
S11300D0EAE7F0E080818064808380917A0086FD85
S11300E0FCCF80917800909179000895CF93DF93AD
S11300F000D0CDB7DEB740E050E011C01A821982BB
S113010007C0000029813A812F5F3F4F3A8329833A
S113011029813A8122353340A0F34F5F5F4F48175E
S1130120590760F30F900F90DF91CF91089590934A
S1130130C5008093C40088E18093C10086E0809369
S1130140C20008958091C00088231CF48091C600E9
S1130150089580E008958AB180668AB984B5836A77
S113016084BD85B5836085BD84B18C6084B90895F0
S1130170811102C018BC089588BD0895811102C080
S113018017BC089587BD0895813021F485B184603A
S113019085B9089585B18B7F85B90895813021F49F
S11301A085B1886085B9089585B1877F85B908953B
S11301B0CF93DF93C8E1D1E088810E94B8008881A1
S11301C00E94BE00DF91CF910895809114010E9496
S11301D0B80080910C010E94BE0008958091100126
S11301E00E94B80080910E010E94BE000895809183
S11301F012010E94B800809116010E94BE00089569
S113020080910C010E94B800809114010E94BE00EC
S1130210089580910E010E94B800809110010E94FF
S1130220BE000895809116010E94B80080911201C9
S11302300E94BE00089520910601309107018217A3
S113024093071CF40E94F70034C020910A013091F6
S11302500B01821793071CF40E94EE002AC0209120
S1130260040130910501821793071CF40E94E500F4
S113027020C02091020130910301281739071CF492
S11302800E94120116C0209108013091090128171B
S113029039071CF40E9409010CC02091000130911F
S11302A00101281739071CF40E94000102C00E94B2
S11302B0D8008AE090E00E947600089584B18062BC
S11302C084B984B18F7E84B9089510928000E1E8E6
S11302D0F0E0808182608083089585B1806285B971
S11302E083E08A95F1F7000085B18F7D85B91C9B69
S11302F0FECF10928500109284001C99FECF80914D
S1130300840090918500969587956DE170E00E9438
S11303101B02CB0108950E94530087E690E00E94DF
S113032097000E94AB000E945E010E94650181E07B
S11303300E94C40081E00E94CE0080E00E94B800C8
S113034080E00E94BE0078940E94A2009FEB980F68
S1130350933010F480931A0180E50E94B80047C0DE
S113036080E00E9461004E976C0185E00E9461006C
S1130370EC0182E00E9461007C0181E00E94610046
S11303808C010E51110983E00E946100449796018B
S11303902C0F3D1FE701C20FD31FC00FD11F8C0FBD
S11303A09D1F65E070E00E941B028B010E946D019D
S11303B0EC018AE090E00E947600EC976CF480E017
S11303C00E94BE0080E00E94B8000E946D018AE095
S11303D090E00E94760003C0C8010E941B010E94A5
S11303E0A2009EEB980F923010F480931A01809132
S11303F01A01813409F4B4CF80E00E94B80080E08F
S11304000E94BE0080911A01823481F488E893E14D
S11304100E94760081E480931A0108C00E94A20021
S11304209FEB980F923010F480931A0180911A0177
S11304308334A1F389CF97FB072E16F4009407D0D9
S113044077FD09D00E942F0207FC05D03EF4909559
S113045081959F4F0895709561957F4F0895AA1BCC
S1130460BB1B51E107C0AA1FBB1FA617B70710F09B
S1130470A61BB70B881F991F5A95A9F780959095CD
S10D0480BC01CD010895F894FFCFEC
S113048A8002B20271023F028A0267025A003200F3
S10D049A6400A00064000A0064007E
S9030000FC
